:020000040800F2
:10000000500B00208901000887110008310F0008FB
:1000100085110008D7030008BD1500080000000086
:100020000000000000000000000000004F15000864
:10003000D9030008000000004D1500085115000804
:10004000A3010008A3010008A3010008A301000800
:10005000A3010008A3010008A3010008A3010008F0
:10006000A3010008A3010008A3010008A3010008E0
:10007000A3010008A3010008A3010008A3010008D0
:10008000A3010008A3010008A3010008A3010008C0
:10009000A3010008A3010008A3010008A3010008B0
:1000A000A3010008A3010008A3010008A3010008A0
:1000B000A3010008A3010008A3010008A301000890
:1000C000A3010008A3010008A3010008A301000880
:1000D000A3010008A3010008A3010008A301000870
:1000E000A3010008A3010008A301000800F002F822
:1000F00000F03AF80AA090E8000C82448344AAF188
:100100000107DA4501D100F02FF8AFF2090EBAE885
:100110000F0013F0010F18BFFB1A43F0010318473B
:10012000681D0000881D0000103A24BF78C878C1FF
:10013000FAD8520724BF30C830C144BF04680C60ED
:10014000704700000023002400250026103A28BF35
:1001500078C1FBD8520728BF30C148BF0B60704739
:100160001FB51FBD10B510BD00F0FBF81146FFF71D
:10017000F7FF01F04FFA00F019F903B4FFF7F2FFAF
:1001800003BC00F021F900000948804709480047F6
:10019000FEE7FEE7FEE7FEE7FEE7FEE7FEE7FEE737
:1001A000FEE7FEE704480549054A064B7047000094
:1001B000BB150008ED00000850050020500B002082
:1001C000500700205007002040EA010310B59B07AC
:1001D0000FD1042A0DD310C808C9121F9C42F8D0B1
:1001E00020BA19BA884201D9012010BD4FF0FF3062
:1001F00010BD1AB1D30703D0521C07E0002010BD78
:1002000010F8013B11F8014B1B1B07D110F8013B03
:1002100011F8014B1B1B01D1921EF1D1184610BDE4
:10022000032A40F2308010F0030C00F0158011F822
:10023000013BBCF1020F624498BF11F801CB00F8FA
:10024000013B38BF11F8013BA2F1040298BF00F84E
:1002500001CB38BF00F8013B11F0030300F04F80E1
:10026000083AC0F0088051F8043B083A51F804CB32
:10027000A0E80810F5E7121D5CBF51F8043B40F8F8
:10028000043BAFF30080D20724BF11F8013B11F803
:1002900001CB48BF11F8012B24BF00F8013B00F847
:1002A00001CB48BF00F8012B70474FF0000200B5AA
:1002B000134694469646203922BFA0E80C50A0E889
:1002C0000C50B1F12001BFF4F7AF090728BFA0E837
:1002D0000C5048BF0CC05DF804EB890028BF40F803
:1002E000042B08BF704748BF20F8022B11F0804F45
:1002F00018BF00F8012B704770477047704710B562
:10030000203AC0F00B80B1E81850A0E81850B1E8CE
:100310001850A0E81850203ABFF4F5AF5FEA027C0D
:1003200024BFB1E81850A0E8185044BF18C918C03D
:10033000BDE810405FEA827C24BF51F8043B40F8DE
:10034000043B08BF7047D20728BF31F8023B48BFC3
:1003500011F8012B28BF20F8023B48BF00F8012B01
:100360007047754600F02CF8AE46050069465346C6
:1003700020F00700854618B020B5FFF713FFBDE851
:1003800020404FF000064FF000074FF000084FF0FC
:10039000000BAC46ACE8C009ACE8C009ACE8C00949
:1003A000ACE8C00921F007018D46704710B504463E
:1003B000AFF300802046BDE81040FFF7DEBE00002E
:1003C000004870471000002001491820ABBEFEE72E
:1003D000260002007047FEE77047EFF3108072B608
:1003E000FEE70000B0B5044600F0DEF8054605481B
:1003F000611C007818BF044400F0D6F8401BA042EE
:10040000FAD3B0BD000000202DE9FC4F594A042367
:100410004FF0000B4FF001084FF00F0E4FF00009A6
:100420000025904208BF032300930B6833FA05F2BE
:1004300008BFBDE8FC8F08FA05F2134200F0958072
:100440004F68032F16D9112F24D0122F26D04D4BD1
:100450009F4213D04C4B9F4210D04C4B9F420DD02B
:100460004B4B9F420AD04B4B9F4207D04A4B9F4277
:1004700004D020E0DFE807F00216191D8B6833B1C5
:10048000012B14BF426102614FF0080913E04FF0E5
:10049000040910E0CB6803F104090CE0CB6803F118
:1004A0000C0908E0D1F80C9005E0CB6803F10809CD
:1004B00001E04FF000095B460646082D28BF203BAF
:1004C00028BF043637680EFA03F409FA03F327EA63
:1004D000040423433360CB79DB0646D5284C264EF3
:1004E0000BF00C0C2368A6F57E7643F00103236025
:1004F000236803F0010301930EFA0CF3019CAC088E
:1005000056F8247027EA030A244B984208D0244B5B
:10051000984207D0234B9842009B08BF022302E079
:10052000002300E0012303FA0CF343EA0A0346F830
:100530002430114C4F68FB03236854BF934313438B
:100540002360BB03636854BF934313436360FB02A0
:10055000A36854BF93431343A360084CBB022368B2
:1005600054BF23EA02021A4322600BF1040B013547
:100570005BE700BF00140140000401400C0401408F
:10058000181002400000111000001210000021108D
:10059000000022100000311000003210000801405D
:1005A000000C014000100140E2480068704700BFA5
:1005B000F8B560B3044690F83D0028B9002084F8EF
:1005C0003C00204600F080F9242084F83D0020689B
:1005D000016821F001010160016841F400410160FE
:1005E000016821F40041016000F0BCFA49494A4B1E
:1005F00000224A4D88424FF0000138BF0121984245
:1006000038BF01226368AB4238BF0A460AB10120F5
:10061000F8BD4349434EB0FBF1F22168B3424D6847
:1006200025F03F0545EA02054D600D6A25F03F05BE
:1006300011D8013201382A430A625A004CF6FF737E
:10064000B0FBF2F001306FF31F30042898BF042094
:10065000CA699A4337E04FF49676013872434FF4F3
:100660007A76B2FBF6F201322A434CF6FF750A6243
:10067000CA69AA43A56845B1192604275E43B0FBA1
:10068000F6F6013667F31F3606E003EB4306B0FBD0
:10069000F6F601366FF31F36360509D055B1192528
:1006A0006B43B0FBF3F00423013063F31F3008E029
:1006B000012008E003EB4303B0FBF3F001306FF3DC
:1006C0001F3040F40040104304F10C06C861E0699B
:1006D0000A6822F0C0021043226A104348F2FF3237
:1006E0000860886890436CCE184310438860C868DF
:1006F00020F0FF0028433043C860086840F0010044
:10070000086000202021206484F83D10206384F8D4
:100710003E00F8BD80841E0000093D00A186010056
:1007200040420F00A08601002DE9FC471F461646F7
:1007300089460446FFF738FF824694F83D0020289A
:100740000ED1604D204601221923CDF800A005F5F9
:10075000702100F02CFC18B994F83C00012802D15B
:100760000220BDE8FC87012084F83C002068016875
:10077000C90703D1016841F0010101600168A5F1D9
:100780000212DDF8288021F400610160212184F843
:100790003D10102184F83E10002121646785618D91
:1007A000E26266622185E16A11F5803F18BF012986
:1007B0001BD1016841F48071016020464FF00111A6
:1007C00000224346CDF800A000F0F1FB38B12068CC
:1007D0000068C00544BF4FF40070206424E0206925
:1007E000B0F5804F07D1FE2013E00829E1D0216B3E
:1007F0001229DED0E1E7062021684246534600EA8E
:10080000D910F0300861A91D204600F00BFC58B942
:10081000FF20216800EA090042465346086120464D
:10082000294600F0FFFB10B10120BDE8FC87002045
:100830000190206841690191806901900198208DA3
:1008400088B320464146524600F037FC10BB606A30
:100850002168024612F8013B0B61638D013B638501
:100860006262228D561E268536044B6918BF13F02E
:10087000040308D0437802300B616062901E20852B
:10088000608D0138608520464146524600F069FB84
:100890000028D4D0206C0428C6D12068016841F417
:1008A00000710160C0E72068016841F400710160D7
:1008B000202084F83D00002084F83C0084F83E00AD
:1008C000BDE8FC870200010010B586B00021CDE92B
:1008D0000411CDE902110168114881421DD13B4C40
:1008E00000F53840216841F008012160216801F0DD
:1008F000080101910321059112210391C021029168
:10090000019902A9FFF780FD606840F40010606063
:10091000606800F400100190019806B010BD00BF9F
:10092000005400401A48034900780A6810440860DF
:10093000704700BF4805002080B58748016841F036
:1009400010010160032000F061F80F2000F004F8AE
:1009500000F020F8002080BD70B50D4E04464FF425
:100960007A713078B1FBF0F083490968B1FBF0F09F
:1009700000F0CAFA01250F2C08D838B94FF0FF3023
:1009800021460022002500F025F87460284670BD3D
:100990000000002082B00D480222016841F00101F0
:1009A0000160016801F0010101910199416841F084
:1009B00080514160406800F08050009000980448E9
:1009C000016862F31A61016002B0704718100240BA
:1009D0000400014070B5134B4FF0FF351B68C3F3A3
:1009E0000223DC1E83F0070338BF0024042B28BF3A
:1009F000042305FA04F605FA03F3B2439943A14030
:100A00001143BDE8704000F0F3BD00BF05494FF64B
:100A1000FF030A681A4060F30A2203481043086083
:100A2000704700BF0CED00E00000FA052DE9F84327
:100A300000286AD0884648490446086800F0070044
:100A400040450AD2086820F0070040EA0800086024
:100A5000086800F00700404557D12068554B89468B
:100A6000810711D5410703D5196841F4E061196088
:100A7000010703D5196841F460511960A1681A682B
:100A800022F0F00211431960C00737D1D9F80000F5
:100A900000F0070040450DD9D9F8000020F007000C
:100AA00040EA0800C9F80000D9F8000000F007008B
:100AB00040452AD12068410705D5E1681A6822F42B
:100AC000E06211431960000706D52069196821F416
:100AD000605141EAC00018601C4600F051F82168DE
:100AE0001E4AC1F30311515CC840234908601C48E9
:100AF0000068FFF731FF0020BDE8F8836068012837
:100B000006D153F8041C89030BD40120BDE8F883F7
:100B100053F8041C022802D18901F6D501E08907A7
:100B2000F3D519681D4621F0030108431860FFF74B
:100B30003BFD064641F28837606829682B4601F084
:100B40000C01B1EB800FA1D0FFF72EFD801BB84246
:100B5000F2D90320BDE8F883002002409C1600086B
:100B600004000020E6481349044A00680968C1F3FC
:100B70000221515CC840704708000020AC160008F4
:100B800010B50C490C480A6802F00C03082B07D179
:100B9000C2F3834309A4D203E35C02D40C48584354
:100BA00010BD096809A25843C1F34041515CB0FB34
:100BB000F1F010BD0410024000127A000203040597
:100BC000060708090A0B0C0D0E0F10100102000099
:100BD00000093D002DE9FC41002800F0A6800446F4
:100BE0000078C54EC00725D0706800F00C000428BE
:100BF0001AD0706800F00C00082802D17068C00399
:100C000012D46068002800F00C81B0F5803F07D056
:100C10003168B0F5A02F40F0388141F48020306079
:100C2000306840F4803036E13068800302D5606877
:100C300000287AD02078800718D5706810F00C0F43
:100C400007D0706800F00C00082824D17068C00339
:100C500021D43068800702D52069012865D16069F8
:100C6000316821F0F80141EAC000306020780007C7
:100C700041D5A06910B3A1480121C0F88014FFF745
:100C800093FC0546706A800728D4FFF78DFC401B53
:100C90000228F7D90CE121699848002900F09A80D0
:100CA00001210160FFF780FC054630688007D6D43B
:100CB000FFF77AFC401B0228F7D9F9E08F480021A2
:100CC000C0F88014FFF770FC0546706A800712D5E3
:100CD000FFF76AFC401B0228F7D9E9E088484FF487
:100CE000FA510068B0FBF1F0019000BF0198411E7D
:100CF00000280191F9D12078400719D4E7698FB114
:100D0000706800F00C00082845D1012F0DD0216A31
:100D1000706800F480328A4207D1616A00F4701072
:100D2000884202D10020BDE8FC810120BDE8FC81A1
:100D3000F069C0000BD4F0694FF0010840F080501A
:100D4000F061F06900F080500090009801E04FF0F1
:100D500000086C4F3868C0050FD4386840F48070C4
:100D60003860FFF721FC05463868C00505D4FFF759
:100D70001BFC401B6428F7D99AE0E068D0B3012837
:100D800005D0316A052862D141F004003062306A32
:100D900040F0010061E05949002088460866FFF7ED
:100DA00003FC0546022F0BD147463068800140F115
:100DB0008280FFF7F9FB411B03200229F5D9B2E736
:100DC00030688001AED5FFF7EFFB411B03200229FD
:100DD000F6D9A8E700210160FFF7E6FB0546306879
:100DE00080077FF543AFFFF7DFFB411B032002299C
:100DF000F5D998E7306A20F001003062306A20F0BF
:100E000004003062FFF7D0FB054641F28837306AB4
:100E1000800731D5FFF7C8FB411B0320B942F6D943
:100E200081E7306820F480303060306820F4802022
:100E30003060FFF7B9FB0546306880037FF5FAAEF6
:100E4000FFF7B2FB411B03206429F5D96BE721F0C2
:100E500001003062306A20F004003062FFF7A4FB2A
:100E6000054641F28837306A800705D4FFF79CFBBE
:100E7000401BB842F7D91BE0B8F1000F3FF43EAF7A
:100E8000F06920F08050F06138E721F48030306064
:100E9000306820F480203060FFF786FB054630681C
:100EA00080033FF5C7AEFFF77FFB401B6428F6D9F0
:100EB0000320BDE8FC81206AB0F5803F05D1A16820
:100EC000726822F4003211437160616A08437168EC
:100ED00021F474110843706001203866FFF764FB49
:100EE0000446306880013FF51DAFFFF75DFB011B35
:100EF00003200229F5D916E7001002400000424203
:100F00000800002000700040411E0020B0EB116F6F
:100F10001CBF01207047044AF023516003490B7045
:100F2000072190601160704710E000E023ED00E0C1
:100F3000FEE70268516949054FF000010FD56FF4D3
:100F4000806353612022016380F83D2080F83E10C9
:100F500080F83C10016C41F0040101640121084655
:100F60007047F8B515460E4604464F1C2068406988
:100F700040071AD42046FFF7DCFFA0B9002FF5D0B8
:100F8000FFF712FB16B1401BB042EFD90020202121
:100F9000206384F83D1084F83E0084F83C00206C07
:100FA00040F0200020640120F8BD0020F8BD2DE9AC
:100FB000F047DDF820909A46164680468FB201F43D
:100FC0007F045D1C1820B4F5803F08BF1420D8F8BA
:100FD000001008583840C01BB0FA80F04009B042F9
:100FE0001DD1002DEED0FFF7DFFABAF1000F03D0CC
:100FF000A0EB09005045E5D900202021C8F83000B9
:1010000088F83D1088F83E0088F83C00D8F8400089
:1010100040F02000C8F840000120BDE8F087002023
:10102000BDE8F0872DE9F8439846164681468FB211
:1010300001F47F05541CD9F80000B5F5803F0CBFC2
:10104000416981693940B9421AD0416949051AD4C8
:10105000002CF0D0FFF7A8FA1EB1A0EB0800B042B8
:10106000E9D900202021C9F8300089F83D1089F81D
:101070003E0089F83C00D9F8400040F0200017E01D
:101080000020BDE8F883016841F4007101606FF44D
:101090008061416100202021C9F8300089F83D10AD
:1010A00089F83E0089F83C00D9F8400040F004007F
:1010B000C9F840000120BDE8F883F8B515460E4692
:1010C00004464F1C2068406900061AD42046FFF7EA
:1010D00030FFA0B9002FF5D0FFF766FA16B1401B1C
:1010E000B042EFD900202021206384F83D1084F81D
:1010F0003E0084F83C00206C40F020002064012079
:10110000F8BD0020F8BD000083B00F48016841F031
:1011100020010160016801F020010291029901683B
:1011200041F004010160016801F00401019101999D
:10113000016841F008010160006800F008000090BB
:10114000009803B0704700BF1810024010B58348E4
:101150000A4B0B4C00214FF48042C0E90043C0E928
:101160000211C0E90421C0E906110162FFF720FA6B
:1011700018B1BDE81040FFF730B910BDA0860100DE
:1011800000540040FEE7FEE7BCB55468157852787D
:10119000CDE9002322462B4600F040F9BCBD0000FB
:1011A00010B5E94CAE20A0472020A0471020A04752
:1011B000B020A047C820A0470020A0471020A0478B
:1011C0004020A0478120A047DF20A047A120A047C2
:1011D000A620A047A820A0473F20A047A420A047C2
:1011E000D320A0470020A047D520A047F020A0474B
:1011F000D920A0472220A047DA20A0471220A047EC
:10120000DB20A0472020A0478D20A0471420A04726
:10121000CC484FF48061FFF748F800F06DF9AF203B
:101220002146BDE81040084780B5C6484FF48061AC
:10123000FFF73BF880BD00BF7CB51D78069E5C685B
:101240005B78203ACDE9005607355A43ED0802FB9A
:10125000054200F0E3F87CBD2DE9F04F89B005911F
:10126000194680461C4691464FF0000A11F8010FBE
:10127000049119780731C908484304305FFA80FBAC
:10128000CBF1040003901FFA8AF019F80050002DEA
:1012900054D009EB0007384600F091F900284DD0F2
:1012A000CDE9065A06464D46CDF82080207A00F159
:1012B00001090020B9F101091ED0D4F8048000EB27
:1012C0000B0A324608EB00013846FEF77DFF002886
:1012D0005046EFD1207863780599009012980190DC
:1012E00003984044DDF8208000EB0A025FFA88F0A2
:1012F00000F094F804981AE0E3681298012E0BD1DC
:10130000DDF82080DDE9051200905FFA88F0FFF734
:1013100093FFE068012609E0DDF820800599009040
:1013200020225FFA88F0FFF787FFE0680130DDF8E0
:101330001CA00078A946B2448044A4E709B0BDE8E7
:10134000F08F0000E0B502464FF0FF300B467821E9
:1013500000900248FFF7E8F98CBD00BFF4040020BC
:101360000249487008460221FFF7ECBF70040020D4
:101370002DE9FC418046072001F00707CC081E46F6
:101380001546CDE9000302FA07F041463B46C2B2DA
:10139000204600F08FF867B1781E41460023C0B2A6
:1013A000CDE90006C7F1080025FA00F2601C00F044
:1013B00081F8BDE8FC812DE9FE4301F00705DDF869
:1013C00028808146CE085C1902FA05F0092C19D351
:1013D00007211746C2B230462B46CDE900184946D0
:1013E00000F068F8A4F1090049460023C0B2CDE935
:1013F0000008C5F1080027FA00F2701C00F05AF846
:10140000BDE8FE83611EC2B230462B46C9B2CDE9AB
:101410000018494600F04EF8BDE8FE832DE9F04F74
:1014200085B003900E980F9E1C4690460F464FF0D5
:1014300000090292C5081046A1451DD003984FF03F
:10144000000BCDF8108009EB000AAB450DD207EB7D
:10145000CB0098F800203346C1B25FFA8AF0FFF75C
:1014600087FFA0440BF1010BEFE7DDF8108009F1D5
:10147000010908F10108DFE70E9911F0070915D0FD
:10148000029805FB040801F0F80000253844C7B2B3
:10149000AC420BD0039818F8052039464B4600960D
:1014A0002844C0B2FFF787FF0135F1E705B0BDE87A
:1014B000F08F000070B507281DD84CB2002C1AD44C
:1014C000DDE90454C3F10803FF26002C4FF4FF7438
:1014D00018BFD243AC406FF0FF051D4126FA03F35D
:1014E000A543234315401A43164B03EBC010435C3E
:1014F0001A402A43425470BD2DE9F041DFF8408084
:10150000104D114C4020002708F1010688F800001A
:10151000082F08BFBDE8F081A7F15000C0B2A04776
:101520000020A0471020A047304629468022FEF721
:1015300077FE40468121FFF705FF80350137E7E759
:10154000720400207000002061130008704770478B
:10155000FFF7E8B9B0B590B0002401A81421CDE997
:101560000B44CDE90944FEF7A0FE4FF4E01002253C
:10157000012108940F904FF480300D950A910E9040
:10158000CDE9061006A8FFF725FB18B1EFF3108090
:1015900072B6FEE74FF4806005940221CDE9034066
:1015A0000F20CDE9010501A8FFF740FA18B1EFF3CC
:1015B000108072B6FEE710B0B0BD7047FEE700784D
:1015C00001065CBF0120704700F0E001C02904BFA4
:1015D0000220704700F0F001E02904BF03207047AB
:1015E00000F0F800F038B0FA80F040098000704751
:1015F00010B5074C00F00F03044AB0F1FF3F23443D
:10160000C8BF83180801187010BD00BF00E400E0D7
:1016100014ED00E082B0FFF78FF9FFF79BFFFFF7B3
:1016200073FDFFF793FDC820FEF7DCFEDFF8508066
:10163000022198F80000C0F1800090FBF1F4FFF760
:10164000AFFD154FE5B24FF000096FF07F0A0DA610
:101650000024FFF7E9FD2846002142460023FFF75A
:1016600093FDAAEB0400302132463B46CDF80090B2
:10167000C0B2FFF7F1FDFFF73FFF0134E9E700BF1C
:10168000E01D0008E6B3A2E789B9E5BE8BE58AA8AC
:1016900068656C6C6F000000E81D00080000000029
:1016A0000000000001020304060708090000000012
:1016B0000102030410080000BC160008000000002E
:1016C000000000000000000000000000000000F822
:1016D00000000000000000333000000000100C0685
:1016E000100C0600000000000000000040C0784020
:1016F000C0784000043F04043F040400007088FCEC
:1017000008300000001820FF211E0000F008F00043
:10171000E018000000211C031E211E0000F00888B4
:10172000700000001E2123241927211010160E001E
:10173000000000000000000000000000000000E0C9
:1017400018040200000000071820400000020418DE
:10175000E00000000040201807000000404080F03A
:10176000804040000202010F01020200000000F070
:10177000000000000101011F010101000000000044
:101780000000000080B070000000000000000000B9
:101790000000000000010101010101010000000042
:1017A00000000000003030000000000000000000D9
:1017B00080601804006018060100000000E01008B6
:1017C0000810E000000F102020100F00001010F88B
:1017D000000000000020203F2020000000700808CA
:1017E000088870000030282422213000003008884A
:1017F000884830000018202020110E000000C02072
:1018000010F8000000070424243F240000F8088892
:10181000880808000019212020110E0000E010881F
:1018200088180000000F112020110E000038080851
:10183000C83808000000003F000000000070880861
:1018400008887000001C222121221C0000E01008E2
:101850000810E0000000312222110F00000000C03B
:10186000C0000000000000303000000000000080D8
:1018700000000000000080600000000000008040C8
:1018800020100800000102040810200040404040E1
:101890004040400004040404040404000008102034
:1018A0004080000000201008040201000070480879
:1018B0000808F0000000003036010000C030C828E1
:1018C000E810E0000718272423140B000000C0389C
:1018D000E0000000203C23020227382008F8888816
:1018E00088700000203F202020110E00C030080822
:1018F00008083800071820202010080008F80808F9
:101900000810E000203F202020100F0008F88888F1
:10191000E8081000203F20202320180008F88888BD
:10192000E8081000203F200003000000C030080835
:101930000838000007182020221E020008F80800BE
:101940000008F808203F210101213F20000808F885
:10195000080800000020203F2020000000000808A8
:10196000F8080800C08080807F00000008F888C068
:1019700028180800203F20012638200008F8080019
:1019800000000000203F20202020300008F8F80050
:10199000F8F80800203F003F003F200008F830C062
:1019A0000008F808203F200007183F00E010080852
:1019B0000810E0000F10202020100F0008F8080881
:1019C0000808F000203F210101010000E010080894
:1019D0000810E0000F18242438504F0008F88888B9
:1019E00088887000203F2000030C30200070880899
:1019F000080838000038202121221C00180808F8A7
:101A0000080818000000203F2000000008F8080027
:101A10000008F808001F202020201F0008788800F8
:101A200000C83808000007380E010000F80800F868
:101A30000008F800033C0700073C03000818688012
:101A40008068180820302C03032C30200838C80088
:101A5000C83808000000203F2000000010080808D7
:101A6000C83808002038262120201800000000FE79
:101A7000020202000000007F40404000000C30C025
:101A800000000000000000010638C0000002020251
:101A9000FE000000004040407F0000000000040203
:101AA000020204000000000000000000000000002E
:101AB000000000008080808080808080000202041E
:101AC0000000000000000000000000000000808016
:101AD000808000000019242222223F2008F8008084
:101AE00080000000003F112020110E000000008047
:101AF00080800000000E11202020110000000080D6
:101B00008088F800000E112020103F200000808007
:101B100080800000001F222222221300008080F01B
:101B2000888888180020203F202000000000808046
:101B300080808000006B94949493600008F800808B
:101B400080800000203F210000203F2000809898E6
:101B5000000000000020203F202000000000008046
:101B60009898000000C08080807F000008F8000086
:101B700080808000203F24022D302000000808F8DB
:101B8000000000000020203F202000008080808096
:101B900080808000203F20003F20003F8080008028
:101BA00080800000203F210000203F200000808036
:101BB00080800000001F202020201F0080800080E7
:101BC0008000000080FFA12020110E000000008096
:101BD00080808000000E112020A0FF808080800087
:101BE0008080800020203F212000010000008080B4
:101BF000808080000033242424241900008080E0A9
:101C0000808000000000001F202000008080000075
:101C100000808000001F202020103F208080800056
:101C20000080808000010E30080601008080008066
:101C3000008080800F300C030C300F00008080008B
:101C4000808080000020312E0E31200080808000B6
:101C50000080808080818E70180601000080808066
:101C6000808080000021302C222130000000000004
:101C7000807C020200000000003F404000000000A5
:101C8000FF00000000000000FF0000000002027CD6
:101C9000800000000040403F0000000000060101FD
:101CA0000202040400000000000000000000000028
:101CB0008080808080808080868F9FBFFFFCF8F8C6
:101CC000E0E0C08080808080C0E0E0F8F8FCFEBFEB
:101CD0009F8F86808080808080800000000000F8D8
:101CE000FEFFFFFFFF1F1F1F1F1F1F1F1F1F1F1FA5
:101CF0001F1F1F1F1F1F1F1F1F1F1F1F1F1F1F1FF4
:101D00001F1F1F1F1F1F1F1F1F1F1F1FFFFFFFFE64
:101D1000FCF8FFFFFFFFFFFF000000E0E0F0F0F045
:101D2000F0F8F8F8F8F8F8000000000000000000F3
:101D300000F8F8F8F8F8F8F0F0F0F0E0200000FF14
:101D4000FFFFFFFFFFFFFFFFFFFFFF00000000039B
:101D50000101010100000000008080000080C0C07F
:101D600080000080800000000000010101030300EA
:101D70000000FFFFFFFFFFFFFFFFFFFFFFFF00006F
:101D80000000000000000000000000010707070736
:101D90000703070707070703010000000000000012
:101DA0000000000000FFFFFFFFFFFF0107071F1FEC
:101DB0001F1F1F1F1FFFFFFFFFFFFF1F1F1F1F1FF3
:101DC0001F1F1F1F1F1F1F1F1F1F1F1F1F1F7FFFE3
:101DD000FFFFFFFF7F1F1F1F1F1F1F0707030000BD
:101DE00033300000AC1C000810100000F81D000883
:101DF00004000000B4160008E6B3A2001060020C54
:101E0000C000F8888888FF8888A8180004047C032C
:101E100080601F80432C102846818000E789B9002C
:101E2000403C10FF1010404848487F48C8484000D8
:101E3000020602FF010100020A1242827F02020032
:101E4000E5BE8B00001088C43310545454FF545422
:101E50007C101000020100FF0010121212FF12127B
:101E600012100000E58AA8004044C44444444010D5
:101E700010FF101010F00000103C131014B8403088
:101E80000E014080403F0000A81E00080000002016
:101E90001000000028010008B81E000810000020F3
:101EA000400B000044010008010000001000000089
:081EB0000024F4000000000012
:04000005080000ED02
:00000001FF
