:020000040800F2
:10000000780A002089010008EB0B0008A10A00080B
:10001000E90B0008CF020008FF14000800000000F0
:100020000000000000000000000000009114000823
:10003000D1020008000000008F140008931400088B
:10004000A3010008A3010008A3010008A301000800
:10005000A3010008A3010008A3010008A3010008F0
:10006000A3010008A3010008A3010008A3010008E0
:10007000A3010008A3010008A3010008A3010008D0
:10008000A3010008A3010008A3010008A3010008C0
:10009000A3010008A3010008A3010008A3010008B0
:1000A000A3010008A3010008A3010008A3010008A0
:1000B000A3010008A3010008A3010008A301000890
:1000C000A3010008A3010008A3010008A301000880
:1000D000A3010008A3010008A3010008A301000870
:1000E000A3010008A3010008A301000800F002F822
:1000F00000F03AF80AA090E8000C82448344AAF188
:100100000107DA4501D100F02FF8AFF2090EBAE885
:100110000F0013F0010F18BFFB1A43F0010318473B
:10012000D44D0000F44D0000103A24BF78C878C1C7
:10013000FAD8520724BF30C830C144BF04680C60ED
:10014000704700000023002400250026103A28BF35
:1001500078C1FBD8520728BF30C148BF0B60704739
:100160001FB51FBD10B510BD00F077F81146FFF7A1
:10017000F7FF01F0D7F900F095F803B4FFF7F2FFAD
:1001800003BC00F09DF8000009488047094800477B
:10019000FEE7FEE7FEE7FEE7FEE7FEE7FEE7FEE737
:1001A000FEE7FEE704480549054A064B7047000094
:1001B000FD140008ED00000878040020780A0020F3
:1001C000780600207806002010B5431C02E010F8E5
:1001D000011B71B18107FAD14FF0013202C88C1AAC
:1001E0008C4314EAC211F9D0C01A0A0603D0C01E0B
:1001F00010BDC01A10BD0A0401D0801E10BD090236
:10020000FCD0401E10BD4FF0000200B513469446CE
:100210009646203922BFA0E80C50A0E80C50B1F15E
:100220002001BFF4F7AF090728BFA0E80C5048BF72
:100230000CC05DF804EB890028BF40F8042B08BF10
:10024000704748BF20F8022B11F0804F18BF00F80C
:10025000012B7047704770477047754600F02CF8C7
:10026000AE4605006946534620F00700854618B0A3
:1002700020B5FFF797FFBDE820404FF000064FF094
:1002800000074FF000084FF0000BAC46ACE8C00987
:10029000ACE8C009ACE8C009ACE8C00921F007012E
:1002A0008D46704710B50446AFF300802046BDE888
:1002B0001040FFF762BF00000048704710000020A8
:1002C00001491820ABBEFEE7260002007047FEE79A
:1002D00070470000B0B5044600F0E4F805468E48CB
:1002E000611C007818BF044400F0DCF8401BA042F9
:1002F000FAD3B0BD2DE9FC4F594A04234FF0000B4F
:100300004FF001084FF00F0E4FF00009002590420A
:1003100008BF032300930B6833FA05F208BFBDE85A
:10032000FC8F08FA05F2134200F095804F68032F06
:1003300016D9112F24D0122F26D04C4B9F4213D008
:100340004B4B9F4210D04B4B9F420DD04A4B9F428C
:100350000AD04A4B9F4207D0494B9F4204D020E02D
:10036000DFE807F00216191D8B6833B1012B14BFAB
:10037000426102614FF0080913E04FF0040910E0F8
:10038000CB6803F104090CE0CB6803F10C0908E029
:10039000D1F80C9005E0CB6803F1080901E04FF0BB
:1003A00000095B460646082D28BF203B28BF0436BF
:1003B00037680EFA03F409FA03F327EA0404234327
:1003C0003360CB79DB0646D5624C264E0BF00C0C25
:1003D0002368A6F57E7643F001032360236803F0CB
:1003E000010301930EFA0CF3019CAC0856F824703B
:1003F00027EA030A234B984208D0234B984207D0A0
:10040000224B9842009B08BF022302E0002300E039
:10041000012303FA0CF343EA0A0346F82430114C93
:100420004F68FB03236854BF934313432360BB030C
:10043000636854BF934313436360FB02A36854BFD4
:1004400093431343A360084CBB02236854BF23EAC1
:1004500002021A4322600BF1040B01355BE700BF77
:1004600000140140000401400C0401400000111080
:1004700000001210000021100000221000003110B6
:100480000000321000080140000C01400010014043
:100490008068084018BF01207047002A08BF09047F
:1004A0000161704705480068704700BF1A4803495A
:1004B00000780A6810440860704700BF700400208C
:1004C00080B58748016841F010010160032000F009
:1004D00061F80F2000F004F800F020F8002080BD43
:1004E00070B50D4E04464FF47A713078B1FBF0F0E0
:1004F0007D490968B1FBF0F000F0BEFA01250F2C30
:1005000008D838B94FF0FF3021460022002500F00E
:1005100025F87460284670BD0000002082B00D48A8
:100520000222016841F001010160016801F001014E
:1005300001910199416841F080514160406800F0AB
:100540008050009000980448016862F31A610160CD
:1005500002B07047181002400400014070B5134B00
:100560004FF0FF351B68C3F30223DC1E83F0070343
:1005700038BF0024042B28BF042305FA04F605FA2B
:1005800003F3B2439943A1401143BDE8704000F02A
:10059000B7BF00BF05494FF6FF030A681A4060F372
:1005A0000A22034810430860704700BF0CED00E0CA
:1005B0000000FA052DE9F84300286AD0884648492A
:1005C0000446086800F0070040450AD2086820F099
:1005D000070040EA08000860086800F0070040458E
:1005E00057D120684F4B8946810711D5410703D564
:1005F000196841F4E0611960010703D5196841F4F5
:1006000060511960A1681A6822F0F0021143196064
:10061000C00737D1D9F8000000F0070040450DD9D8
:10062000D9F8000020F0070040EA0800C9F80000EF
:10063000D9F8000000F0070040452AD120684107A2
:1006400005D5E1681A6822F4E062114319600007D9
:1006500006D52069196821F4605141EAC00018608C
:100660001C4600F045F821681E4AC1F30311515C95
:10067000C8401D4908601D480068FFF731FF002091
:10068000BDE8F8836068012806D153F8041C89038B
:100690000BD40120BDE8F88353F8041C022802D1D2
:1006A0008901F6D501E08907F3D519681D4621F0C7
:1006B000030108431860FFF7F5FE064641F288374C
:1006C000606829682B4601F00C01B1EB800FA1D0C6
:1006D000FFF7E8FE801BB842F2D90320BDE8F8839B
:1006E0000020024008170008080000200400002035
:1006F00010B50C490C480A6802F00C03082B07D10E
:10070000C2F3834309A4D203E35C02D40C485843E8
:1007100010BD096809A25843C1F34041515CB0FBC8
:10072000F1F010BD0410024000127A00020304052B
:10073000060708090A0B0C0D0E0F1010010200002D
:1007400000093D002DE9FC41002800F0A680044688
:100750000078C54EC00725D0706800F00C00042852
:100760001AD0706800F00C00082802D17068C0032D
:1007700012D46068002800F00C81B0F5803F07D0EB
:100780003168B0F5A02F40F0388141F4802030600E
:10079000306840F4803036E13068800302D560680C
:1007A00000287AD02078800718D5706810F00C0FD8
:1007B00007D0706800F00C00082824D17068C003CE
:1007C00021D43068800702D52069012865D160698D
:1007D000316821F0F80141EAC0003060207800075C
:1007E00041D5A06910B3A1480121C0F88014FFF7DA
:1007F00059FE0546706A800728D4FFF753FE401B58
:100800000228F7D90CE121699848002900F09A8064
:1008100001210160FFF746FE054630688007D6D407
:10082000FFF740FE401B0228F7D9F9E08F4800216E
:10083000C0F88014FFF736FE0546706A800712D5AF
:10084000FFF730FE401B0228F7D9E9E088484FF453
:10085000FA510068B0FBF1F0019000BF0198411E11
:1008600000280191F9D12078400719D4E7698FB1A8
:10087000706800F00C00082845D1012F0DD0216AC6
:10088000706800F480328A4207D1616A00F4701007
:10089000884202D10020BDE8FC810120BDE8FC8136
:1008A000F069C0000BD4F0694FF0010840F08050AF
:1008B000F061F06900F080500090009801E04FF086
:1008C00000086C4F3868C0050FD4386840F4807059
:1008D0003860FFF7E7FD05463868C00505D4FFF727
:1008E000E1FD401B6428F7D99AE0E068D0B3012805
:1008F00005D0316A052862D141F004003062306AC7
:1009000040F0010061E05949002088460866FFF781
:10091000C9FD0546022F0BD147463068800140F1E2
:100920008280FFF7BFFD411B03200229F5D9B2E702
:1009300030688001AED5FFF7B5FD411B03200229C9
:10094000F6D9A8E700210160FFF7ACFD0546306845
:1009500080077FF543AFFFF7A5FD411B0320022968
:10096000F5D998E7306A20F001003062306A20F053
:1009700004003062FFF796FD054641F28837306A81
:10098000800731D5FFF78EFD411B0320B942F6D910
:1009900081E7306820F480303060306820F48020B7
:1009A0003060FFF77FFD0546306880037FF5FAAEC3
:1009B000FFF778FD411B03206429F5D96BE721F08F
:1009C00001003062306A20F004003062FFF76AFDF7
:1009D000054641F28837306A800705D4FFF762FD8B
:1009E000401BB842F7D91BE0B8F1000F3FF43EAF0F
:1009F000F06920F08050F06138E721F480303060F9
:100A0000306820F480203060FFF74CFD05463068E8
:100A100080033FF5C7AEFFF745FD401B6428F6D9BC
:100A20000320BDE8FC81206AB0F5803F05D1A168B4
:100A3000726822F4003211437160616A0843716880
:100A400021F474110843706001203866FFF72AFD15
:100A50000446306880013FF51DAFFFF723FD011B01
:100A600003200229F5D916E7001002400000424297
:100A70000800002000700040411E0020B0EB116F04
:100A80001CBF01207047044AF023516003490B70DA
:100A9000072190601160704710E000E023ED00E056
:100AA000FEE700002DE9F04F89B0CDE90101009388
:100AB000032014464FF0000BDDE9008AA0EB42034F
:100AC0000A22A34559DC029E0BEB0A002C4D03922F
:100AD0004246C0B2311B0590C9B2CDE90713129B43
:100AE000A84704EB0A00129F42465FFA80F9A6EB82
:100AF0000B00C1B248463B460691A8470BEB0600E7
:100B00001F4D42463B46C1B248460491A847A01932
:100B1000DFF86C9042463B463D46C6B205983146EA
:100B2000C847AAEB0B00314642462B46C7B23846AF
:100B3000C847AAEB0400049942462B46C6B2304689
:100B4000C8470799384642462B46C847069930465B
:100B500042462B46C847089B0BF1010B002B07D4DC
:100B6000ABEB04000A22013C02EB8000039A01E097
:100B7000039A104603440432A3E709B0BDE8F08F9E
:100B8000D10C00087FB51748B24C0122C0250126C0
:100B9000016841F020010160016801F0200100912D
:100BA0000099016841F004010160016801F004014D
:100BB00000910099016841F008010160C0210068BE
:100BC00000F00800009000982046FFF766FC032024
:100BD0006946CDE902602046CDE90056FFF78AFB61
:100BE0007FBD00BF18100240FEE7FEE770B5E34D81
:100BF0000024E0B2072888BF70BDA4F15000C0B245
:100C0000A84700200026A8471020A84770B2002857
:100C100004D4002000F020FC0136F7E70134E8E7B7
:100C2000D54900200022082A08BF00F08BB9002314
:100C3000802B02D0C8540133FAE780310132F2E749
:100C40002DE9FE4F0546101A0C464FF000094FF0F3
:100C5000000A4FF000080146029044BF484202904B
:100C60001F1B3A4648BF7A42029893469042C8BF3B
:100C70008346002F18BF4FF0FF37C8BF0127002958
:100C800018BF4FF0FF31C8BF01210191D94588BF7E
:100C9000BDE8FE8F1646DDE90C23E8B2E1B200F0B4
:100CA00017F808EB0600324609F101095845C8BF9C
:100CB0003C440299019E51445945C8BF3544B0EBAC
:100CC0000B08D8BF8046B1EB0B0AD8BF8A46DDE7D8
:100CD000F0B544B2002C23D43F2921D86FF0700422
:100CE000A54D04EA01142E1901F00705345C24FA1D
:100CF00005F707F00107974212D00127002A0644A2
:100D000007FA05F544EA050708BF24EA0507012BA1
:100D1000377005D102460B46BDE8F04000F0DCB864
:100D2000F0BD00BF2DE9FC47DDF82C80DDF828A0E0
:100D3000DFF844901C460B4615460E460746CDF894
:100D40000480CDF800A0C847384631463A462346CD
:100D5000CDE900A8C847384621462A462346CDE9B2
:100D600000A8C847284631462A462346CDE900A8B0
:100D7000C847BDE8FC8700BF410C0008B0B58E4CE9
:100D8000354D402101222046A847204680210122DE
:100D9000A847204680210022A84720464021002263
:100DA0002B46BDE8B0401847B0B5834C2A4D4021D2
:100DB00000222046A847204680210022A84720463E
:100DC00040210122A8472046802101222B46BDE870
:100DD000B0401847B0B500F0D3F8774C402101225D
:100DE0002046FFF75AFB002520468021FFF750FBE5
:100DF00038B1681CFA2D0546F6D3FFF7D5FF01255B
:100E000007E02046402100220025FFF746FB00F0C6
:100E1000C5F82846B0BD00BFF8B5674D044640216F
:100E2000002200262846FFF738FB0B4F072E88BF0D
:100E3000F8BDE0B28021C2092846B84728464021C3
:100E40000122B847284640210022B84701366400F5
:100E5000ECE700BF000C01409B04000810B5474CB4
:100E6000AE20A0472020A0471020A047B020A047D8
:100E7000C820A0470020A0471020A0474020A0473E
:100E80008120A047FF20A047A120A047A620A0477F
:100E9000A820A0473F20A047A420A047D320A047D8
:100EA0000020A047D520A047F020A047D920A04788
:100EB0002220A047DA20A0471220A047DB20A0472D
:100EC0002020A0478D20A0471420A047AF20A04796
:100ED000BDE81040FFF78ABE2DE9F84F3F2B28BF31
:100EE0003F2314467F2A28BF7F240090844228BFD6
:100EF0008B4201D2BDE8F88F1F48CD081F4F4FEA43
:100F0000D30A00EBC516009800F00F09000900F1A4
:100F1000100B5545EED8A5F15000C0B2B847484671
:100F2000B8475846B847DDF80080A04506D816F8FF
:100F3000080000F091FA08F10108F6E78036013563
:100F4000E7E700BFF8B50C4D0C4E0024082C08BF95
:100F5000F8BDA4F15000C0B2B04700200027B04750
:100F60001020B047802F04D0E85D00F075FA0137FB
:100F7000F8E780350134E9E7700000202314000809
:100F8000F8B50320694603900120029000200190EB
:100F9000802000900848FFF7ADF98FBDF8B5032019
:100FA000694603900120CDE90100802000900248AD
:100FB000FFF7A0F98FBD00BF000C01402DE9FE4FE7
:100FC000814640B200283ED43F293CD802EB0907B5
:100FD000802F38D803EB010ABAF1400F33D80D98AF
:100FE0000D4601900C9C0291E8B2CB4682451DD97A
:100FF0005FFA8BF6B74217D94FF00008B8F1080F27
:101000000ED005EB08000023C1B2207820FA08F0CA
:1010100000F001023046FFF75BFE08F10108EDE742
:101020000BF1010B0134E3E70835DDE70198029984
:10103000012808D1FAB25FFA8AF3484603B0BDE846
:10104000F04FFFF749BFBDE8FE8F00002DE9F04FDC
:1010500089B00391089040B2002800F18F80039876
:101060003F2800F28B80202AC0F0888012980190DF
:10107000A2F120000690A3F108004FEAB00600207C
:10108000042E029000F27D80DFE806F00A03030DD3
:101090000300581E082190FBF1F05908013001E0CF
:1010A0000120062102900091CCB237480022069917
:1010B00000EB011005900299D0B281424DD90399FD
:1010C00060434FF000080492079001EBC209A0456D
:1010D00040D0042E23D8DFE806F0030C13221700BB
:1010E000069907982A4A01EB4101404402EB41016D
:1010F00012E007980699254A404401EB410109E0B6
:1011000007980599404407E0079806991D4A40440E
:1011100001EBC10102EB8101084490F800B008988E
:101120005FFA8BF54FF0000A08EB0007BAF1080FE1
:101130000DD009EB0A000023C1B225FA0AF000F035
:101140000102F8B2FFF7C4FD0AF1010AEEE708F167
:101150000108BCE7049A0132ADE7019801280DD1DE
:10116000089800990144CAB2DDE9023101EBC303DA
:10117000DBB209B0BDE8F04FFFF7AEBE09B0BDE885
:10118000F08F90E7E4320008F42C000820230008D8
:10119000584C00082DE9F04F8BB0CDE9050140B265
:1011A000002821D406983F281ED81E46DDF850C0DE
:1011B0001078DFF81081444D444BDFF814E1002132
:1011C0001EF80140A04205D10EEB01045778647867
:1011D000A7420CD08C1CFC2903F1480305F1200523
:1011E00008F118082146EBD90BB0BDE8F08FA6F145
:1011F000080000214FEAB000049104280BD8DFE872
:1012000000F00304040A0400EEE7701E082190FBBE
:10121000F1F001300490CDE90258CDE900C300227D
:10122000059D0499D0B281423BD9019970430027B2
:1012300001440A91029901440991039908440890D4
:101240000698079200EBC204B74227D0182E07D0A9
:10125000102E03D00C2E07D1089802E0099800E068
:101260000A98384490F8009007EB050B5FFA89F86C
:101270004FF0000ABAF1080F0ED004EB0A00002369
:10128000C1B228FA0AF000F001025FFA8BF0FFF712
:101290001FFD0AF1010AEDE70137D5E7079A013290
:1012A000BFE7009801289FD10598049B3118CAB266
:1012B000069901EBC303DBB20BB0BDE8F04FFFF7BB
:1012C0000BBE00BF181F000894270008404000080C
:1012D000804E00082DE9FE4F054640B2002849D453
:1012E0000C463F2946D80C981E46174602901046D9
:1012F000FEF76AFF0190A6F108004FF0000A4FF0D8
:10130000000B4FEAB000042812D8DFE800F00C030D
:1013100003110300701E08214FEA560890FBF1F0FC
:1013200000F1010B04E04FF006084FF0010BFFE75E
:101330004FF0000917F809205AB108FB095021465F
:101340003346CDF800A0C0B2FFF780FE09F10109D5
:10135000F0E7029801280DD10198214608FB0050C2
:10136000C2B204EBCB00C3B2284603B0BDE8F04FD5
:10137000FFF7B2BDBDE8FE8F2DE9FE4F05461046D2
:101380001E4617460C46FEF71FFF0190A6F1080007
:101390004FF0000900224FEAB000DDF830B0042819
:1013A0003ED8DFE800F03B03030A0300701E08216B
:1013B0004FEA560890FBF1F0421C4FF0000A0292EF
:1013C00017F80A20C2B108FB0A50812A0AD307EB9A
:1013D0000A02C0B221463346CDF80090FFF7DAFE8C
:1013E000022007E0C0B221463346CDF80090FFF757
:1013F0002DFE01208244E3E70299BBF1010F0DD1DC
:10140000019808FB0050C2B204EBC1002146C3B2F0
:10141000284603B0BDE8F04FFFF75EBDBDE8FE8F84
:10142000CBE710B50446FFF7A9FC7820FFF7F4FCE2
:10143000FFF7D0FC58B90020FFF7EEFCFFF7CAFC1D
:1014400028B92046FFF7E8FCFFF7C4FC00B110BD47
:10145000BDE81040FFF7A8BC10B50446FFF78EFCAE
:101460007820FFF7D9FCFFF7B5FC58B94020FFF70B
:10147000D3FCFFF7AFFC28B92046FFF7CDFCFFF700
:10148000A9FC00B110BDBDE81040FFF78DBC70474E
:101490007047FFF70BB8B0B590B0002401A8142135
:1014A000CDE90B44CDE90944FEF7ADFE4FF4E01061
:1014B0000225012108940F904FF480300D950A9178
:1014C0000E90CDE9061006A8FFF73CF918B1EFF32E
:1014D000108072B6FEE74FF4806005940221CDE9DA
:1014E00003400F20CDE9010501A8FFF763F818B10B
:1014F000EFF3108072B6FEE710B0B0BD7047FEE7A4
:1015000010B5074C00F00F03044AB0F1FF3F23442D
:10151000C8BF83180801187010BD00BF00E400E0C8
:1015200014ED00E082B0FEF7CBFFFFF7B4FFFFF74A
:1015300029FBFFF793FCFFF759FB694EDFF8A4B1D5
:10154000DFF8A4A1DFF8A48101274FF00009634C64
:1015500000200121482208230097A04700200921EC
:1015600048220C230097A047002016214822102370
:101570000097A04700202721482218230097A04762
:101580004FF4FA70B047D847002001215246082393
:101590000097C0470020092152460C230097C047FE
:1015A00000201621524610230097C0470020272113
:1015B000524618230097C0474FF4FA70B047D847F7
:1015C0004B4C4C4D002009210C2300972246A84784
:1015D00000201621224610230097A847002027212B
:1015E000224618230097A8474FF4FA70B047D8470F
:1015F000414C424D002009210C2300972246A84768
:1016000000201621224610230097A84700202721FA
:10161000224618230097A8474FF4FA70B047D847DE
:10162000002000217F223F23CDE90077FFF708FB50
:101630004FF4FA70B047002000217F223F23CDE90C
:101640000097FFF7FDFA4FF4FA70B04700200A2127
:1016500078223C23CDE90077FFF764FB4FF4FA7062
:10166000B04700200A2178223C23CDE90097FFF7FC
:1016700059FB4FF4FA70B047402020211422012377
:101680000097FFF70FFA4FF4FA70B047402020217F
:10169000142200230097FFF705FA4FF4FA70B047C1
:1016A0001748002180224023CDE900070020FFF7E2
:1016B00085FC4FF4FA70B047124800218022402385
:1016C000CDE900070020FFF779FC4FF4FA70B0472E
:1016D000D8474FF4FA70B04739E700BF4D10000803
:1016E000D5020008210C0008EA4E0008D5120008B7
:1016F000F04E000895110008D74E00087913000835
:1017000018170008181B0008000000000000000067
:1017100001020304060708090003050911FF1189E6
:1017200005C300E000F000F80000000000000044E5
:1017300028FF11AA44000000000000000000000083
:101740000000000000000000000000000000000099
:101750000000000000000000000000000000000089
:101760000000000000000000000000000000000079
:1017700000008301384482929274018300000000CB
:101780000000007C44FF017D7D7D017D7D7D7D012C
:101790007D7D7D7D7D01FF000000000000010001D6
:1017A0000001000100010001000000000000000035
:1017B0000001010000000000000000000000000027
:1017C0000000000000000000000000000000000019
:1017D0000000000000000000000000000000000009
:1017E00000000000000000000000000000000000F9
:1017F00000000101000000000000010100000000E5
:1018000000000000000101010101010101010101CD
:1018100001010101010101000000000000000000C1
:1018200000000000000000000000000000000000B8
:10183000000000003F3F0303F313111111111111B8
:1018400001F1116181010101816111F101010101C8
:101850004141F10101010101C1211111111121C108
:10186000010101014141F1010101010101010101F8
:10187000011111111111D33303033F3F0000000088
:101880000000000000000000000000000000000058
:101890000000000000000000000000000000000048
:1018A0000000000000000000000000000000000038
:1018B00000000000E0E000007F01010101010100E3
:1018C000007F0000010618060100007F00000000F4
:1018D00040407F40400000001F2040404040201F0B
:1018E0000000000040407F40400000000060000019
:1018F000000040300C0300000000E0E000000000A9
:1019000000000000000000000000000000000000D7
:1019100000000000000000000000000000000000C7
:1019200000000000000000000000000000000000B7
:101930000000000007070606060604040484444469
:1019400044840404844444448404040484C4040497
:101950000404844444448404040404048444444447
:1019600084040404040484444444840404844444F7
:101970004484040404040606060607070000000069
:101980000000000000000000000000000000000057
:101990000000000000000000000000000000000047
:1019A0000000000000000000000000000000000037
:1019B00000000000000000000000000000101814EB
:1019C000121100000F1010100F000000101F100067
:1019D0000000081012120D00001800000D12121263
:1019E0000D00001800001018141211000010181437
:1019F00012110000000000000000000000000000C4
:101A000000000000000000000000000000000000D6
:101A100000000000000000000000000000000000C6
:101A200000000000000000000000000000000000B6
:101A300000000000000000000000000000000000A6
:101A40000000000000000000000000000000000096
:101A50000000000080808080808080800000000086
:101A60000000000000000000000000000000000076
:101A70000000000000000000000000000000000066
:101A80000000000000000000000000000000000056
:101A90000000000000000000007F030C300C037FFA
:101AA00000003854545800007C04047800003C4086
:101AB000407C00000000000000000000000000006A
:101AC0000000000000000000000000000000000016
:101AD00000000000FFAAAAAA280800FF00000000DA
:101AE00000000000000000000000000000000000F6
:101AF00000000000000000000000000000000000E6
:101B0000007F030C300C037F000026494949320056
:101B1000007F020408107F000000000000000000A9
:101B20000000000000000000C0E0F8FCFFFFFFFC28
:101B3000F8E0C0000000000000000000000000000D
:101B40000000000000000000000000000000000095
:101B50000000000000000000000000000000000085
:101B60000000000000000000000000000000000075
:101B70000000000000000000000000000000000065
:101B80000000000000000000000000000000000055
:101B90000000000000000000000000000000000045
:101BA000000080C0C080000001030F1F7F7F3F1F27
:101BB000070381E0F0F8F0C08000000000000000A2
:101BC0000000000000000000000000000000000015
:101BD0000000000000000000000000000000000005
:101BE00000000000000000000000000000000000F5
:101BF00000000000000000000000000000000000E5
:101C000000000000000000000000000000000000D4
:101C100000000000000000000000000000000000C4
:101C20001C3EFFFFFFFF7F1C00000000000000784B
:101C3000FCFFFFFFFFFFFFFFFFFEFCF0E080000066
:101C4000000000000000000000F8F8F8F87878784C
:101C5000787878787878F8F8F8F8E00000C0C0C0B4
:101C6000F8F8F8F88080E0E0E0E0E0E0E0E0E0E0D4
:101C7000E0000000E0E0FCFEFEFCE0E0E0C0F8F880
:101C8000F8000000000000E0E0E0E0E0E0ECFCFE36
:101C9000FCE0E0E0E0E0E0E0C0E0F0F0C080000068
:101CA00080E0F0FDFDF8E0C080E0F0FCFEFFFEFC0F
:101CB000F0FBFFFFFFFFFFFFFFFFFFFFFFFFFFFC4A
:101CC000F8E0C0800000000000FFFFFFFF063EFEBE
:101CD000FEF0FCFEFE1EFFFFFFFFFF000003FFFF04
:101CE000FFFFFFFFFFFFBFFDFDFDFDFDFDFDFDFD56
:101CF000BD3C00007BFBFFFFFFFF7F7FFBFFFFFF83
:101D00009FFFFFFF1F0000013DFDFFFFFFFFFFFDE5
:101D1000FDFFFFFFFFFF7D3903070F0F03010000E9
:101D200001070FBFBF1F070301070F3F7FFF7F1F83
:101D30000F9FFFFFFFFFFFFFFFFFFFFFFFFFFF3FC3
:101D40001F0703010000000000FFFFFFFF00E0FD90
:101D5000FFFFFFFFF080FFFFFFFFFF000000FFFF1E
:101D6000FFFFFFFFFFFFFFFFFFFFFFFFFFFFFFFF83
:101D7000FF00001EDFDFDFDFFFFEFEDEC7079FFF85
:101D8000FFFF9F010000000000FFFFFFFFFFFFFFBC
:101D9000FFFFFFFFFFFF0000000000000000000049
:101DA000387CFFFFFFFF7E38000000000000001CB1
:101DB0003FFFFFFFFFFFFFFFFF7F3F0F0701000017
:101DC0000000000000000038383F3F3F3F07070792
:101DD0000700010707071F3F3F3F3F38001C1F1F39
:101DE0007F7F7F7F0F0F0F3F3F3D3F3F3F000F0F34
:101DF0000F0E04003B3B3B3B3F3F1B037B787F3F89
:101E00001F3F3F3C38380000007F7F7F0303030300
:101E1000031F7D7F7F3F00000000000000000000E6
:101E2000000001030301000080C0F0F8FEFEFCF892
:101E3000E0C081070F1F0F03010000000000000039
:101E40000000000000000000000000000000000092
:101E50000000000000000000000000000000000082
:101E60000000000000000000000000000000000072
:101E70000000000000000000000000000000000062
:101E80000000000000000000000000000000000052
:101E90000000000000000000000000000000000042
:101EA000000000000000000003071F3FFFFFFF3F8E
:101EB0001F070300000000000000000000000000F9
:101EC0000000000000000000000000000000000012
:101ED0000000000000000000000000000000000002
:101EE00000000000000000000000000000000000F2
:101EF00000000000000000000000000000000000E2
:101F000000000000000000000000000000000000D1
:101F1000000000000000000000FE1222C2221A028F
:101F2000FE000000080702010001020003040F0088
:101F30008868FF48109212F21292100000000F0001
:101F40000201080F00000300A86A3FAA6C0A10EF04
:101F500008F8080002020A0F01010805020508003E
:101F600002EAAEAAAAABAAAAAEFA0200000F0202C7
:101F7000020202020A0F0000FC242424FF2424246D
:101F8000FC000000030101010709090909080E000E
:101F900000FE02424242FA4242420200080708089A
:101FA00008080F08090A080010FC03086888090AD5
:101FB00008E80800000F0008080B080C0B080800D0
:101FC0002027A5A5673867A5AD372000010F0A0AAD
:101FD0000E000E0A0A0F0100202224E8203F20E80C
:101FE00024222000080402010000000708080E0057
:101FF000FE1212FE20D24E425252CE0009050105B9
:1020000008010509010509002010FC2324E4BCA7F0
:10201000A4A4200000000F00000202040609000032
:1020200000FE02EAAAEA029F629BC20009060006BD
:10203000080A0D080C020D002027A5A5673867A522
:10204000AD372000010F0A0A0E000E0A0A0F010028
:10205000224400C05FD555D55FC000000402090FBF
:10206000080F080F080F08001122803E2AEA2AEA0A
:102070002A3E800004020809080F080F080908001A
:1020800000FE0A8ABEAAABAABE8A0A000807000898
:10209000090A04040A0908007848FF4878005457E0
:1020A000EA4A560004040302070005050F0505006F
:1020B000FE0202FE007E434A525EC000030101039D
:1020C000020202020A0807002027A5A5673867A5B3
:1020D000AD372000010F0A0A0E000E0A0A0F010098
:1020E0008888FF48004CC47546C44C0000080F00A7
:1020F000080805020205080094F39264DC88AAFF30
:10210000AABE0800000F040A070A0A0F0A0A0A00FA
:10211000224480E41CC53E54947404000402000F61
:102120000108050205080800C0405F55D515D555C2
:102130005F40C0000F0505050F000F0505050F00E6
:10214000482A987F284A10EF08F80800090B05056F
:102150000B0008050205080042F22EE2013D212194
:10216000213FE00000070207010101010908070003
:102170001C0BEAAEAAACABAAEE0A1A0000000F0ACA
:102180000A0A0A0A0A0E000010FC0300FAAAAFAA03
:10219000AAFA0200000F00080F0A0A0A0A0F080034
:1021A000F2929E00E02F29F9292FE000080807008D
:1021B0000909090F090D090000FE0A8ABEAAABAA87
:1021C000BE8A0A0008070008090A04040A09080070
:1021D00011F200488A2A4FEA0A0A18000007020989
:1021E000090503010305090002FE5252FE0204FC28
:1021F00004FC0000020302020F01080403040800AB
:1022000098F7948410D45F54545FD400000F0402F4
:10221000000F050505050F0011F280A0AFA9E9A97F
:10222000AFA08000000702080402010204080800B1
:102230008868FF481028A42324A8100000000F007D
:10224000090E080B0C0B08002244FE02FA02FE00E5
:10225000FC00FF00040209040304090001080F0048
:102260000202824222F20E2242820200010100009A
:10227000000F000000000100929A96F2929AB200BC
:10228000FC00FF00080808070404040001080F0010
:1022900011F20022EAAABFAAAAEA2200000F040053
:1022A0000F0202020A0F000008FAAAAAAAFEA9A9B0
:1022B000A9F90800080A0A0A0A0F0A0A0A0A080005
:1022C00011F2000024E42404FF040500000F0400C0
:1022D0000407020003040E001010FF1020FC10FF82
:1022E0000884FC00040403020007080908080E0023
:1022F0001010FF1000F80000FF101000040403028B
:10230000080F08080F0808008888FF4800FEAAAADE
:10231000FAAAAE0000080F0806010F0404040F001B
:102320000000000000000000000000000000FC00B1
:102330000000000002000000000C020C020000007F
:102340000000000090D0BCD0BC900003000300004F
:102350001824FE448C000302070201001824D8B0A0
:102360004C80000300010201C038E438E0000102A3
:102370000201020208060000000000000000000048
:10238000000000F80402000000010204000204F84A
:1023900000000004020100009060F860900000005E
:1023A000010000002020FC202000000001000000AF
:1023B000000000000000080600000000202020208F
:1023C00020000000000000000000000000000002EB
:1023D000000000000080601C0200040300000000F8
:1023E000F8040404F8000102020201000008FC00E5
:1023F00000000002030200001884442418000302B5
:102400000202020008042424D80001020202010092
:1024100040B088FC80000000000302003C2424241B
:10242000C400010202020100F824242CC0000102B1
:10243000020201000C04E41C040000000300000080
:10244000D8242424D8000102020201003844444464
:10245000F80000030202010000001000000000006C
:102460000200000000002000000000000600000044
:10247000002050880402000000000102909090901B
:1024800090000000000000000002048850200002BC
:10249000010000001804C42418000000020000001D
:1024A000F804E494F80001020202020000E09CF04B
:1024B000800002030000030204FC2424D80002036D
:1024C00002020100F80404040C00010202020100EF
:1024D00004FC0404F80002030202010004FC24745A
:1024E0000C0002030202030004FC24740C0002032B
:1024F00002000000F0080444CC4000010202010088
:1025000004FC2020FC040203000003020404FC0479
:102510000400020203020200000404FC0404060496
:102520000403000004FC24D00C0402030200030294
:1025300004FC04000000020302020203FC3CC03C55
:10254000FC0003000300030004FC30C4FC0402038D
:1025500002000300F8040404F80001020202010072
:1025600004FC24241800020302000000F884840400
:10257000F80001020207050004FC2464980002032D
:1025800002000302182424448C000302020201000A
:102590000C04FC040C0000020302000004FC000018
:1025A000FC04000102020100047C80E01C04000025
:1025B000030000001CE03CE01C00000300030000DE
:1025C000049C609C0400020300030200041CE01C45
:1025D00004000002030200000C84641C04000203D7
:1025E000020203000000FE020200000007040400D3
:1025F000000E30C00000000000010200000202FED8
:1026000000000004040700000004020400000000B1
:10261000000000000000000000000808080808088A
:102620000000020000000000000000000040A0A028
:10263000C00000010202030204FC2020C0000003CD
:102640000202010000C0202060000001020202001E
:1026500000C02024FC0000010202030200C0A0A070
:10266000C0000001020202000020F824240400023D
:10267000030202000040A0A0602000070A0A0A042A
:1026800004FC2020C0000203020003020020E4003A
:102690000000000203020000000020E4000008081F
:1026A0000807000004FC80E020200203020003026F
:1026B0000404FC000000020203020200E020E0200B
:1026C000C00003000300030020E02020C00002033C
:1026D0000200030200C02020C0000001020201002D
:1026E00020E02020C000080F0A02010000C02020C6
:1026F000E0000001020A0F0820E040202000020351
:10270000020000000060A0A02000000202020300FE
:102710000020F820000000000102020020E000205C
:10272000E00000010202030220E02080602000009F
:10273000030100006080E0806000000300030000EF
:1027400020608060200002030003020020E020805F
:1027500060200808070100000020A060200000029F
:1027600003020200000020DE020000000007040057
:10277000000000FF00000000000F00000002DE204B
:10278000000000040700000002010204040200002F
:10279000000000000000FE021222C202C23202FE4D
:1027A0000000000080601F0020100C030C30000FA0
:1027B0003040F8001010D0FF901020222222E22298
:1027C00022222000040300FF00130C0340807F003E
:1027D0000106180020A4A4A4FFA4B42884708F08C4
:1027E00008F80800040A49887E0504844020130C78
:1027F00033408000040424B4ACA4A5A6A4A4A4B4CB
:1028000064040400000000FF0A0A0A0A0A4A8A7FD8
:10281000000000000000F888888888FF8888888881
:10282000F800000000001F080808087F88888888D2
:102830009F80F0000000FE0282828282FA82828201
:102840008282020080601F40404040407F40404400
:1028500058404000008060F80710901011161010CA
:10286000D0100000010000FF4040415E4040704E2B
:102870004140400080809E9292929EE0809EB2D223
:10288000929E80000808F4949292F10001F29294D2
:1028900094F808004040424458C0407F40C050482F
:1028A000464040008080402018070000003F404024
:1028B0004040780000FE424242FE0042A29E82A2B8
:1028C000C2BE0000806F080828CF00002FC808088B
:1028D00028CF0000008060F807404848E85F48487B
:1028E00048404000010000FF0000020B1222D20A03
:1028F000060000000000FC04D4545454D4047F8427
:10290000C53604008866010063828292AB8482C16E
:102910000224CF0080809E9292929EE0809EB2D24E
:10292000929E80000808F4949292F10001F2929431
:1029300094F808001060028C0000FE92929292922D
:10294000FE00000004047E01407E42427E427E4240
:10295000427E40001060028C00FE9292929292920F
:10296000FE00000004047E014448507F40407F5038
:10297000484440000000FC242424FC252624FC2498
:102980002424040040308F80844C55252525554C47
:102990008080800000F808FF08F880904C57A4540D
:1029A0004C8480002063211F113910101515FF156C
:1029B0001510100000FC0404FC0000FC0416650463
:1029C00084FC0000000F04040F00101312121252B6
:1029D00092423E0080809E9292929EE0809EB2D271
:1029E000929E80000808F4949292F10001F2929471
:1029F00094F80800101010FF9020988888E98E88BD
:102A000088A898000242817F000080844B2810280B
:102A1000478000004030EF242480E49C105454FF91
:102A2000547C100001017F21512618274445455F41
:102A3000454544001060028C0084E41C05C6BC249B
:102A400024E4040004047E010000FF8241261829CA
:102A500046818000000000007F49494949497F00C4
:102A60000000000000FF49494949FF00FF4949496A
:102A700049FF000090523410FF10345280708F08CC
:102A800008F80800829A566322528E008040330C68
:102A9000334080000484E45C44C40002F2828282F9
:102AA000FE80800002017F10103F000808080848DF
:102AB00088403F00886423A2A6AAA2BAA4A3A226A3
:102AC0002AA26200000000FF4A4A4A4A4A4A4BF8DA
:102AD00000000000008060F80704E4A4A4BFA4A4E0
:102AE000E4040000010000FF40407F4A4A4A4A4A8D
:102AF0007F40400002E222223E00809E9292F292AB
:102B0000929E8000004382423E40474444447F44BA
:102B10004454E7000000FC242424FC252624FC2443
:102B20002424040040308F80844C55252525554CA5
:102B300080808000404042CC00002024A4243FA498
:102B400024A460000000007F2010888A4C29180F00
:102B50001828C8000202FE929292FE0206FC0404AB
:102B600004FC000008180F080804FF04844027181C
:102B7000274080004030EF246448487F4848487F21
:102B80004848400001017F211100FF494949494956
:102B9000FF0000004042CC0000809E9292929292F0
:102BA0009E80000000007F2094844424140F14248D
:102BB000448484001010D0FF905020504C434C505F
:102BC00020404000040300FF00414458414E60583B
:102BD000474040001060028C00FE02F202FE00F846
:102BE00000FF000004047E018047300F10270047DB
:102BF000807F000000020202028242F20E42820244
:102C00000202000010080402010000FF00000001A1
:102C1000020C00004262524AC6425262C200F800F0
:102C200000FF000040C444447F24242420000F40BF
:102C3000807F00004042CC0000445454547F5454E0
:102C40005444400000007F201000FF1515155595D5
:102C50007F000000101014D4545454FC525252D32C
:102C600012101000404050575555557F5555555737
:102C700050404000404042CC009090909090FF1017
:102C8000111610000000003F1028603F1010010EC8
:102C90003040F000202020FF202080F88040FF20DE
:102CA00010F000001030100F0808003F40405F4255
:102CB00044437800202020FF202000F80000FF403F
:102CC000404000001030100F0848407F40407F40D7
:102CD000404040001010FF109000FE929292F2923D
:102CE000929E800042827F0180601F00FC44474426
:102CF00044FC000000000000000000000000000094
:102D000000000000000000F8000000000000003398
:102D10003000000000100C06100C0600000000003F
:102D20000000000040C07840C0784000043F040428
:102D30003F040400007088FC08300000001820FFE9
:102D4000211E0000F008F000E018000000211C0324
:102D50001E211E0000F00888700000001E212324A0
:102D60001927211010160E000000000000000000BE
:102D700000000000000000E018040200000000074E
:102D80001820400000020418E00000000040201855
:102D900007000000404080F0804040000202010F28
:102DA00001020200000000F0000000000101011F0C
:102DB00001010100000000000000000080B0700070
:102DC0000000000000000000000000000001010100
:102DD000010101010000000000000000003030008F
:102DE0000000000000000000806018040060180669
:102DF0000100000000E010080810E000000F1020A3
:102E000020100F00001010F8000000000020203FEC
:102E10002020000000700808088870000030282476
:102E20002221300000300888884830000018202017
:102E300020110E000000C02010F80000000704243C
:102E4000243F240000F80888880808000019212081
:102E500020110E0000E0108888180000000F1120DB
:102E600020110E0000380808C83808000000003F94
:102E7000000000000070880808887000001C2221F3
:102E800021221C0000E010080810E00000003122A0
:102E900022110F00000000C0C00000000000003040
:102EA0003000000000000080000000000000806092
:102EB0000000000000008040201008000001020413
:102EC00008102000404040404040400004040404FA
:102ED00004040400000810204080000000201008B6
:102EE00004020100007048080808F00000000030EB
:102EF00036010000C030C828E810E0000718272479
:102F000023140B000000C038E0000000203C230226
:102F10000227382008F8888888700000203F202089
:102F200020110E00C03008080808380007182020BB
:102F30002010080008F808080810E000203F2020B2
:102F400020100F0008F88888E8081000203F202093
:102F50002320180008F88888E8081000203F200087
:102F600003000000C03008080838000007182020BF
:102F7000221E020008F808000008F808203F21017E
:102F800001213F20000808F8080800000020203F29
:102F90002020000000000808F8080800C080808099
:102FA0007F00000008F888C028180800203F200192
:102FB0002638200008F8080000000000203F2020EC
:102FC0002020300008F8F800F8F80800203F003F03
:102FD000003F200008F830C00008F808203F20001B
:102FE00007183F00E01008080810E0000F1020202C
:102FF00020100F0008F808080808F000203F210101
:1030000001010000E01008080810E0000F18242457
:1030100038504F0008F8888888887000203F2000CA
:10302000030C302000708808080838000038202180
:1030300021221C00180808F8080818000000203F8A
:103040002000000008F808000008F808001F2020F1
:1030500020201F000878880000C8380800000738C2
:103060000E010000F80800F80008F800033C070013
:10307000073C0300081868808068180820302C037B
:10308000032C30200838C800C83808000000203F52
:103090002000000010080808C83808002038262141
:1030A00020201800000000FE020202000000007F45
:1030B00040404000000C30C0000000000000000153
:1030C0000638C00000020202FE000000004040403E
:1030D0007F00000000000402020204000000000063
:1030E00000000000000000000000000080808080E0
:1030F00080808080000202040000000000000000C8
:103100000000000000008080808000000019242260
:1031100022223F2008F8008080000000003F11209C
:1031200020110E000000008080800000000E1120A1
:1031300020201100000000808088F800000E11207F
:1031400020103F200000808080800000001F22228D
:1031500022221300008080F0888888180020203FF9
:10316000202000000000808080808000006B94940C
:103170009493600008F8008080800000203F2100C8
:1031800000203F2000809898000000000020203F91
:1031900020200000000000809898000000C080807F
:1031A000807F000008F8000080808000203F24021B
:1031B0002D302000000808F8000000000020203F0B
:1031C000202000008080808080808000203F2000C0
:1031D0003F20003F8080008080800000203F210051
:1031E00000203F200000808080800000001F202001
:1031F00020201F00808000808000000080FFA12030
:1032000020110E000000008080808000000E112040
:1032100020A0FF80808080008080800020203F21CF
:103220002000010000008080808080000033242482
:1032300024241900008080E0808000000000001F2E
:10324000202000008080000000808000001F2020DF
:1032500020103F20808080000080808000010E30A0
:103260000806010080800080008080800F300C0301
:103270000C300F0000808000808080000020312E04
:103280000E312000808080000080808080818E70E0
:103290001806010000808080808080000021302C92
:1032A0002221300000000000807C020200000000AB
:1032B000003F404000000000FF0000000000000050
:1032C000FF0000000002027C800000000040403F40
:1032D00000000000000601010202040400000000DA
:1032E00000000000000000000000000000000000DE
:1032F00000000000000000000000000000000000CE
:1033000000000000000000000000000000F0F0F0ED
:10331000000000000000000000017F01000000002C
:1033200000000000001C1C1C000000000000806069
:10333000301C8C60301C0C000000000000000000FD
:10334000000000000000000000000000000000007D
:10335000000000E00000000000E000000086E69FA2
:1033600086868686E69F860000011F010101010115
:103370001F010100000080C06020F820E0C00000B4
:10338000000003070C18FF70E18100000000070F28
:1033900010107F100F070000806020608000000088
:1033A000E02000000F3020309F70DC371030C0006C
:1033B0000000100E03000718101807000000C020BE
:1033C00020E0C0000000000080E01F38E88703C450
:1033D0003C040000070F1810100B070D1010080018
:1033E00000808C4C3800000000000000000000004D
:1033F00000000000000000000000000000000000CD
:103400000000000000000000000080E03008040020
:103410000000000000FEFF010000000000000000AE
:103420000000030F1820400000040830E080000076
:10343000000000000000000001FFFE00000000008E
:10344000004020180F0300000000000000000000F2
:103450000000C00000000000004266663C18FF1833
:103460003C6666420000000000000300000000000F
:10347000000000000000800000000000001010109C
:103480001010FF10101010100000000000000300CA
:10349000000000000000000000000000000000002C
:1034A00000000000000000000000000000808C4CC4
:1034B00038000000000000000000000000000000D4
:1034C000000000000010101010101010101010005C
:1034D00000000000000000000000000000000000EC
:1034E00000000000000000000000000000000000DC
:1034F0000000000000001C1C1C0000000000000078
:103500000000000000000000E0380C000000000097
:1035100080701C03000000000060380E01000000F5
:1035200000000000000080C060202060C08000001B
:1035300000FEFF010000000001FFFE000001070E79
:10354000181010180E0701000000808080C0E000F5
:10355000000000000000000000FFFF00000000006D
:1035600000001010101F1F101010000000804020DD
:1035700020202060C080000000030300804020382D
:103580001F070000001C1A1918181818181F00002F
:103590000080C020202060C08000000000030300E5
:1035A0001010182FE780000000070F1010101018DF
:1035B0000F070000000000000000C0E0F000000065
:1035C00000C0B088868180FFFF808000000000007E
:1035D0000010101F1F1010000000E06060606060AD
:1035E0006060000000003F1008080818F0E00000CC
:1035F00000070B101010101C0F030000000080C00B
:1036000040202020E0C0000000FCFF211008080836
:1036100018F0E0000001070C18101010080F03004C
:103620000000C0E06060606060E0600000000300D7
:103630000000E0180700000000000000001F1F004D
:10364000000000000080C0602020202060C08000BA
:103650000087EF2C1818303068CF830000070F0860
:1036600010101010180F07000000C0C020202020EC
:10367000C0800000001F3F604040402010FFFE005F
:1036800000000C1C101010080F03000000000000C8
:10369000000000000000000000000000000E0E0E00
:1036A0000000000000000000001C1C1C00000000C6
:1036B000000000000000000000000000000000000A
:1036C000000C0C0000000000000000000058380052
:1036D00000000000000000000000008040201000FA
:1036E00000001028448201000000000000000000DB
:1036F00000000102040810000000000000000000AB
:103700000000000000848484848484848484840091
:103710000000000000000000000000000000102079
:103720004080000000000000000000000000018256
:1037300044281000000010080402010000000000EE
:1037400000C020201010101030E0C0000003030063
:1037500000F010080C070300000000001C1C1C00F7
:1037600000000000000000C0406020202040C00099
:1037700000FCFF01F00E03C1FE03807F0001070E75
:1037800008111110110904020000000080E0E0009F
:10379000000000000000807C4340477FF88000006C
:1037A00010181F1000000000131F1C1020E0E02064
:1037B00020202060C080000000FFFF1010101018B3
:1037C0002FE78000101F1F1010101010180F070097
:1037D000000080C0402020202060E00000FCFF01AD
:1037E00000000000000001000001070E181010107A
:1037F0000804030020E0E02020202040C0800000DA
:1038000000FFFF000000000001FFFE00101F1F105E
:10381000101018080E07010020E0E02020202020D2
:103820002060800000FFFF101010107C00000000DE
:10383000101F1F10101010101018060020E0E020BC
:10384000202020206060800000FFFF101010107CFE
:1038500000000100101F1F10000000000000000009
:10386000000080C06020202040E0000000FCFF013C
:1038700000004040C0C140400001070E1810101069
:103880000F0F000020E0E0200000000020E0E0201A
:1038900000FFFF101010101010FFFF00101F1F106E
:1038A00000000000101F1F100000202020E0E0207A
:1038B000202000000000000000FFFF0000000000CA
:1038C00000001010101F1F1010100000000000005A
:1038D000202020E0E020202000000000000000FF69
:1038E000FF0000000060E0808080C07F3F0000009B
:1038F00020E0E020000020A06020200000FFFF303A
:10390000187CE3C000000000101F1F10000001130E
:103910001F1C181020E0E020000000000000000044
:1039200000FFFF000000000000000000101F1F103B
:10393000101010101018060020E0E0E00000000059
:10394000E0E0E02000FF013FFEC0E01E01FFFF00BD
:10395000101F1000031F0300101F1F1020E0E0C005
:10396000000000000020E02000FF0003071C78E0BA
:103970008000FF00101F100000000000030F1F0058
:10398000000080C060202060C080000000FEFF01B9
:103990000000000000FFFE000001070E18101018C4
:1039A0000C07010020E0E0202020202060C08000E3
:1039B00000FFFF2020202020301F0F00101F1F10AD
:1039C0000000000000000000000080C060202060B7
:1039D000C080000000FEFF010000000000FFFE00AC
:1039E0000001070E1111133C7C67210020E0E0204C
:1039F0002020202060C0800000FFFF101030F0D099
:103A0000080F0700101F1F10000000030F1C1010EC
:103A10000080C060202020204040E00000070F0C04
:103A20001818303060E08100001F0C0810101010D2
:103A3000180F07008060202020E0E0202020608018
:103A40000100000000FFFF00000000010000000076
:103A5000101F1F100000000020E0E0200000000008
:103A60000020E02000FFFF00000000000000FF0039
:103A700000070F1810101010100807002060E0E079
:103A80002000000020E060200000077FF880008018
:103A90007C03000000000000071F1C07000000005E
:103AA00020E0E02000E0E0200020E0200007FFF818
:103AB000E01FFFFCE01F00000000031F0300011FC8
:103AC00003000000002060E0A0000020E060200073
:103AD000000000038F7CF8C6010000000010181ED3
:103AE000130001171F1810002060E0E02000000004
:103AF00020E06020000001073EF8E0180700000009
:103B000000000010101F1F10100000000080602037
:103B1000202020A0E0E0200000000000C0F03E0FC8
:103B20000300000000101C1F1710101010180600D2
:103B30000000000000FC0404040404000000000075
:103B400000FF00000000000000000000007F404077
:103B500040404000000010E00000000000000000B5
:103B600000000000031C6080000000000000000056
:103B7000000000030C70800000000404040404FC36
:103B80000000000000000000000000FF0000000036
:103B9000000040404040407F000000000000001056
:103BA000080C040C081000000000000000000000D9
:103BB0000000000000000000000000000000000005
:103BC00000000000000000000000000000000000F5
:103BD00000000000000000008080808080808080E5
:103BE00080808080000000040408080000000000BD
:103BF00000000000000000000000000000000000C5
:103C000000000000000000000000000000000000B4
:103C100000000000000098D844642424FCF8000050
:103C2000000F1F18101010081F1F10180020E0F0C0
:103C300000000000000000000000FFFF180804045E
:103C40000CF8F00000001F0F18101010180F0300E0
:103C500000000000000000000000000000E0F81874
:103C60000404043C3800000000030F0C1010101076
:103C7000080600000000000000000020E0F0000046
:103C800000E0F81C04040408FFFF000000030F1804
:103C9000101010081F0F08000000000000000000B6
:103CA000000000000000E0F8484444444C787000F4
:103CB0000000030F0C181010100804000000000092
:103CC00080C0602020E0C00000040404FFFF040462
:103CD00004040000000010101F1F1010100000004E
:103CE000000000000000000000000000000070F86C
:103CF0008C04048CF874040C007076CF8D8D8D8943
:103D0000C87870000020E0F0000000000000000013
:103D10000000FFFF08040404FCF8000000101F1F4F
:103D2000100000101F1F1000000000000060600065
:103D3000000000000000040404FCFC00000000007F
:103D400000001010101F1F101010000000000000D5
:103D5000000000606000000000000000040404FC9B
:103D6000FC0000000000C0C08080C07F3F00000059
:103D70000020E0F000000000000000000000FFFF55
:103D800080C0F41C0404000000101F1F1100031F5A
:103D90001C1010000000202020E0F00000000000B7
:103DA0000000000000FFFF000000000000001010F5
:103DB000101F1F1010100000000000000000000085
:103DC0000000000004FCFC0804FCFC0804FCFC00EF
:103DD000101F1F10001F1F10001F1F1000000000E9
:103DE00000000000000000000004FCFC08080404BF
:103DF000FCF8000000101F1F100000101F1F100013
:103E000000000000000000000000000000E0F018CA
:103E10000C04040C18F0E00000030F0C101010103C
:103E20000C0F030000000000000000000000000074
:103E30000004FCFC080404040CF8F0000080FFFF00
:103E4000889010101C0F030000000000000000000C
:103E50000000000000E0F81C04040408F8FC000066
:103E600000030F1810109088FFFF80000000000072
:103E70000000000000000000040404FCFC10080422
:103E8000040C0C001010101F1F1010100000000078
:103E9000000000000000000000000000000030787A
:103EA000CCC48484840C1C0000001E181010101157
:103EB000190F06000000000000C000000000000014
:103EC00000040404FFFF04040400000000000000DC
:103ED0000F1F1010100C0000000000000000000078
:103EE000000000000004FCFE00000004FCFE0000D6
:103EF00000000F1F181010081F0F0800000000001E
:103F0000000000000000000000040C3CFCC40000A5
:103F1000C43C0C0400000000010F1E0E0100000054
:103F2000000000000000000000000000043CFCC491
:103F300000E47CFC84807C040000071F070000076D
:103F40001F0700000000000000000000000000004B
:103F50000004041C7CE4C0341C0404000010101C89
:103F60001601131F1C1810000000000000000000C4
:103F70000000000000040C3CFCC400C43C0404002D
:103F80000000C080C1370E010000000000000000EA
:103F9000000000000000000000001C0404C4F47CC9
:103FA0001C0400000000101C1F17111010180E0038
:103FB00000000000000000F80C04000000000000F9
:103FC000001028EF00000000000000000000003F8B
:103FD00060400000000000000000FF000000000042
:103FE000000000000000FF000000000000000000D2
:103FF0000000FF00000000000000040CF8000000BA
:104000000000000000000000EF2810000000000089
:10401000000040603F0000000000000000180602A1
:1040200002040810202030080000000000000000FA
:104030000000000000000000000000000000000080
:1040400000000000F8F0F010101010101090909088
:10405000F8F8F8000000000000000080FFFF0F03E8
:1040600087CEFC78FEEFC781FFFFFF000000000055
:104070000060781F0F0F0C06030100000001070706
:1040800000070F1F387F7F0000808080FEFEFE84C7
:10409000C0800808080808080808080C0C08000078
:1040A0000000E0F8FFFFFF3C3A32C2F2F222FEFECF
:1040B000FE22E2E2C3830200020303007F7F7F1837
:1040C0001C0F071130307F7F3F0000030F0F0600E9
:1040D000000020202020FEFE24F0E0F8B810E0FED2
:1040E0007E4E40C0E06040000081C9C9693939DFB7
:1040F000EF7B9D9D999F0FFFF8E0FFFF0F000000F1
:10410000000206062623637F7F4141613030180C90
:104110000F0F1F3C7870300000103030101090D01E
:10412000D0F0763E1E1C50D0D09090181810000091
:104130000000000003FFFFFB4B4B4B4B4B4B4B4B2B
:10414000FDFFFF070200000000000000007F7F7FEE
:1041500002020202021232727F7F3F000000000062
:10416000000000E0E0C040404040FEFEFE40404015
:1041700040C0E0E040000000000000FFFFFF84843A
:104180008484FFFFFF84848484FFFFFF000000001D
:10419000000000030303000000003F7F7F606060B9
:1041A000606161617E7E600000000000FCF808082C
:1041B00008080808E8E868080808080C0C08000067
:1041C000000000C0FFFF080818080808FFFF0848A3
:1041D000C8C88C0C080000004060781F1F33101006
:1041E000101010101F1F10101013171718181000A0
:1041F00000000000E0FCFE5EC4404040467E7C784B
:10420000404040606040000020301C0FFFFFFF0076
:1042100000067EFCF0C00000F8FF3F070000000031
:10422000000000007F7F7F10301010131311101F4B
:104230001F1110101818100000000004FCFC8484EA
:1042400084FCFC0800FCFC848484FCFC0800000066
:1042500000040C86C7C7E4F4BCDFCF87878D9DB50B
:10426000F7E7C7C7C6C6C400000101017F7F3F1042
:10427000107F7F207F7F7F1010107F7F2101000043
:10428000000000001030F0E0C08000FCFC0C00805A
:10429000F0F070200000000000040C04040404C7C7
:1042A000FFFD0C0707FCFE070504040606060400D4
:1042B0000040606030381E0F07010000003F3F30B3
:1042C000303030303F3F38000000FCFCF80808FC7C
:1042D000FCF8048CE4FC7C5CC484F4FC7C040000EA
:1042E0000000FFFFFF4141FFFFFF06FFFDFC4444CC
:1042F0004445FDFFFE0400000060717D3F000007A3
:104300007F7C3800021E7C783000061C7C783000F0
:1043100000000000C0F0FE3E4EC4404040FEFE7E65
:1043200044404060604000004070381EFFFFFF09BD
:10433000180888E8FFFF9F88888888C88C0C0800C8
:1043400000000000FFFFFF000000000919183838C6
:104350007CEFE7C301000000000000F8F8F0909047
:1043600090909090D0BEFEFE121E9EDCD898100059
:104370000080E07F3F07FCFC7C2424FCFCFC673FC2
:104380003F7EE7E3C1F8F8000031313E1E003E7E7B
:104390007E4041434F4E40707C79071E1D1D010039
:1043A00000000004FCFC848484FCFC0800FCFC8409
:1043B0008484FCFC0800000000040C86C7C7E4F4F9
:1043C000BCDFCF87878D9DB5F7E7C7C7C6C6C400DA
:1043D000000101017F7F3F10107F7F207F7F7F10D2
:1043E00010107F7F210100000080800C1C3CD8E071
:1043F000F8FCF8484848484848FCFCFC000000002D
:1044000000010787E6FC3FF3EFEF2FE4E42424E408
:10441000E42FEFFFE020000001013B7F7F27603F9A
:104420003F3F203F3F20203F3F203F3F3F30300075
:104430008080840C3C3890C048FCF8484848484884
:104440004848F8FCFC080000808183C7F7FE3FE382
:10445000C89F0FFCFCFC04FCFCFC8FCFFF706000CD
:1044600000013F3F3F2060202327273F3F3F203F61
:104470003F3F232130302000000000F8F8F01010FA
:1044800010F0F2D61E1C18F0F0D0509898181000BA
:10449000000000FFFF3F014141DFDF5F4949495F05
:1044A000DFFFE1410101000040703F4F43404060A9
:1044B0002030311F1E1C1E3F3331707060602000A1
:1044C00000808080FEFEFC80C08080E07C7EFECE8E
:1044D00088E8F83C1800000000FFFFFFFFFFFFFF27
:1044E000FFFF19B89C9E96FFFFFF96DEDC9C040040
:1044F000001919190F0F0F070F1E1C0C0504047F5C
:104500007F3F04040606040000F0F8F01010F0F8F5
:10451000F000F0F0F07EFED69010F0F87000000091
:1045200000FFFFFF2020FFFF7F007F7F3F20252F20
:104530003D3E2FEFF0F020000001010100000002DD
:1045400006020202020202123373727F3F0F000062
:1045500000000004FCFC848484FCFC0800FCFC8457
:104560008484FCFC0800000000040C86C7C7E4F447
:10457000BCDFCF87878D9DB5F7E7C7C7C6C6C40028
:10458000000101017F7F3F10107F7F207F7F7F1020
:1045900010107F7F2101000000404040FEFEFE64BD
:1045A00060C0F0F020A2BEBE3C2020E0F0706000B1
:1045B00000606070FFFFFF0C0E0BC9F8FE3F0F0993
:1045C00088F8F8790C0C0800000030307F7F3F40FD
:1045D00040606131313B1F0E0F0F1D1C3830000051
:1045E0000080E0FE7E2EB0B030B0F0F87050505237
:1045F000FEFE50F0F8504000222363FFFFFF3131F0
:10460000E4EF87FDFE3E3612FFFF12179F92000077
:104610000000001F3F7F6C74301F0F1F1B393131AA
:104620003F3F3131313111000000040C3C3890D053
:104630007010F0F0F25EFEFCF05010989818100028
:104640000001070FEEFC7F773CFFFF6B783EFFFF1A
:10465000B9F9FD7F1F0100000101337F7F3F00009A
:10466000007F7F406030381F0F1F1D387070300092
:10467000000000000000FCFCFC242424242424244A
:10468000FCFCFC00000000000000F0F8F0101F1F10
:10469000F7FAFA1202FAF212171717F0F8F0000000
:1046A00000007F7F7F1111117F7F7F00007F7F11CE
:1046B0001111117F7F7F00000040C45C7CF8FEFE7A
:1046C000FE707C7C6CE0FEFE4E44C0C0E0604000AA
:1046D0000050D84C4EE7FF7F7FC3E7FE4F077FFFB8
:1046E000E0F0FF7F070000004040602033331F1ED2
:1046F0000E4F5F7D3830181F0F0F1F3C7870300051
:10470000000818C8F8F818080C0C0818E8E8680839
:104710000808FCFC7C00000040703EFFFF0202FF26
:10472000FF02003F3F1F1010109E9F1FF0F8F00087
:104730000000001F1F02020F0F0101010101011102
:104740003131717D7F1F00000080C0F0FC1E7EF4BF
:10475000F01078F8F0B83E1EF4F0D01098981000E1
:10476000000C0F0F03F9F9F949494949494949F939
:10477000FDF901070703030000000000007F7F7FB1
:1047800012121212121212127E7F3E00000000005E
:1047900000000080F0FE7E1E3490909090FEFE9609
:1047A0009090D0D89810000020381E0FFFFF010015
:1047B00000FFFFFF4848484848FFFFFF0000000097
:1047C000000000007F7F6060203F3F3F24242424BE
:1047D000243F3F3F3030200000088888080808FC4C
:1047E000FC0800FCFCFC44C4C444FCFCFC000000CD
:1047F00000207F7F3F21E1F3F320F8F8F88888FF5D
:10480000FF8988F8FCF808000000103060707F3FD6
:10481000276063733130303F3F3012171D7D7800C1
:10482000000000F8F8F0101010F0F2D61E1C18F07E
:10483000F0D0509898181000000000FFFF3F014191
:1048400041DFDF5F4949495FDFFFE14101010000CE
:1048500040703F4F434040602030311F1E1C1E3FC0
:1048600033317070606020000000040C3C38108010
:1048700090B0909090FEFEFE90909898D0C08000EE
:10488000020606FEFFFF0200113076EE5C1CC0FE41
:10489000FE0C0007838101000000001F3F3F1C4DFC
:1048A00047636131311D1F0F0F19397171610100AB
:1048B000000808F8F8F88888F8F8FC2C28E0E020D0
:1048C0002020E0F0F0200000000000FFFFFF1010AB
:1048D000FFFFFF80808F7FF8E0FC7F0F010000006A
:1048E00000060607070303037F7F7F61301C0E0766
:1048F000030F1E1C38381000000080F0FC7C58604C
:10490000604040C0FCFCFC4040FCFC486060000093
:10491000084CC743FFFEFE4363664CF4E7E72724D9
:104920002427E7F4F6060400000000003F3F3F188C
:104930000C04007F7F3F111111117F7F7F00000069
:10494000000000043C7878000000FCFC848484842F
:104950008484FCFCFC00000000020602FEFFFE4016
:10496000C4CC4D4544FCFCFCC4444547666440004F
:10497000000000000F1F5F47636130381E0F030106
:10498000070F1C387070200040404040FEFEFE4083
:104990006060C0C0F07E3E3E78E0C08080000000D5
:1049A0000080E07EFFFFFF1E1C5EC78D04F4F4C490
:1049B00004C6F7F733030100000101007F7F7F2069
:1049C00060202F2F2F2027273F3F2F21303020001E
:1049D0000080840C3C3810FCF808C8C8C8F8F818E7
:1049E000E0E0E0FCFCFC000000010787F6FE1FFF92
:1049F000FFC0FFFF00FFFF00FFFFFFFFFFFF000002
:104A000001013F3F7F4160331F1F07050C3D3930D7
:104A10001333737F7F3F0000000818080808080858
:104A20000808C8F8F83808080808080C0C0C080032
:104A300000000080C0E070381E0FFFFFFF0102067B
:104A40000C1C3870F0E0C0000002030101000000FF
:104A500000007F7F7F0000000000000001010000D7
:104A60000008081808C8E8783878C8888C0C08E06E
:104A7000E0E00000FCFC040000404646474746FEDC
:104A8000FE4E42636F4F06FFFFFF0000FFFF000076
:104A9000003070703030101F1F1808080C0C040311
:104AA000133330707F3F00000000000C3C3C1000CE
:104AB0001070D05050FEFEFE545070705818100008
:104AC00002060202FFFF02020212F2F25253535395
:104AD0005252FAFAF3030200000000083F3F1E079B
:104AE00003417F7F0202023222627F7F1F000000AB
:104AF000000040D0505050505858F8F8F848484CF2
:104B00004C4C4C68604000000000000000FEFE922B
:104B10009292FFFFFF929292FEFFFF0200000000C0
:104B2000002060242425252424243F3F3F242424DE
:104B3000252527263430200000000038F8F060805A
:104B400080808080808080FCFCFC88B8F8F0800049
:104B500004040C04FEFEFC00091808F8F8F80C1F09
:104B6000FFFFC00000000000000000003F3F3F1EAC
:104B70001F19180F0F0F060603070F3E387E7E0021
:104B800000000000FCFCFC000000F0F02000FEFE35
:104B9000FE80C0C0C080000000020602FFFFFF0BC5
:104BA0000B0EFFFF0602FFFFFF81FFFFFF0000006B
:104BB0000818181C0F0F070602023F3F303037332A
:104BC000333131313C3F3F0000000000FEFEFE006B
:104BD000800080800000FEFEFE0400000000000057
:104BE00000010301FFFFFF010101FFFFFF00FFFFC5
:104BF000FF04040406060400001C1C0C07072363C2
:104C000061213F3F3F203F3F3F20202030302000A8
:104C100080808080FCFCFC80C080FCF888888888CC
:104C2000888888F8F808000040C0E0E0FFFFFF181F
:104C30000CFEFFFF888888FFFFFF88C9CD8C080025
:104C4000002020607F7F7F381F0F037F7F7F101041
:104C50001010107F7F000000000000000000000026
:104C6000002F000000000700070000147F147F14CD
:104C700000242A7F2A120062640813230036495553
:104C8000225000000503000000001C22410000002B
:104C900041221C000014083E08140008083E0808C1
:104CA000000000A06000000808080808000060601C
:104CB0000000002010080402003E5149453E00005B
:104CC000427F4000004261514946002141454B313D
:104CD000001814127F10002745454539003C4A4909
:104CE000493000017109050300364949493600067B
:104CF0004949291E000036360000000056360000E3
:104D0000000814224100001414141414000041225D
:104D1000140800020151090600324959513E007C35
:104D20001211127C007F49494936003E414141221F
:104D3000007F4141221C007F49494941007F090908
:104D40000901003E4149497A007F0808087F0000B8
:104D5000417F4100002040413F01007F0814224173
:104D6000007F40404040007F020C027F007F04082B
:104D7000107F003E4141413E007F09090906003E87
:104D80004151215E007F09192946004649494931B0
:104D90000001017F0101003F4040403F001F2040D3
:104DA000201F003F4038403F006314081463000791
:104DB0000870080700615149454300007F414100E8
:104DC00000552A552A55000041417F000004020188
:104DD0000204004040404040000001020400002066
:104DE00054545478007F48444438003844444420A4
:104DF00000384444487F00385454541800087E0951
:104E000001020018A4A4A47C007F08040478000018
:104E1000447D4000004080847D00007F10284400D5
:104E20000000417F4000007C04180478007C0804E6
:104E3000047800384444443800FC24242418001822
:104E4000242418FC007C080404080048545454200E
:104E500000043F444020003C4040207C001C204097
:104E6000201C003C4030403C004428102844001CDA
:104E7000A0A0A07C004464544C44141414141414D2
:104E8000B7E7B1EABDCCD3FDB5E7D1B9CEBBC6F724
:104E9000B9E2D5D5B4ABB8D0C6F7CEC2CAAAB6C8A7
:104EA000B7E4C3F9C6F7B0B4BCFCD2BABEA7CAFD1A
:104EB000C2EBB9DCD6B5C7BFB6C8B6C1C8A1B4EDA0
:104EC000CEF3BCECB2E2B2BBB5BDC7EBD6D8CAD408
:104ED000B5D8D6B7BEDD00E9A38EE6A087E69599E2
:104EE000E882B22F46424544550048656C6C6F001D
:104EF000E6959900184F00080000002010000000FF
:104F000028010008284F000810000020680A00004F
:104F10004401000800000000010000001000000033
:084F20000024F4000000000071
:04000005080000ED02
:00000001FF
